S01000004556455F546573742E7372656335
S1130000B8240020210100001D0100001D01000092
S113001000000000000000000000000000000000DC
S11300200000000000000000000000001D010000AE
S113003000000000000000001D010000611200002B
S11300401D0100001D0100001D0100001D01000034
S11300501D0100001D0100001D010000FD11000034
S11300601D0100001D0100001D0100001D01000014
S11300701D01000000000000000000001D01000040
S1130080000000001D0100001D0100001D01000012
S11300901D0100001D0100001D0100001D010000E4
S11300A01D0100001D0100001D0100001D010000D4
S11300B01D0100001D0100001D01000010B5064CCB
S11300C02378002B07D1054B002B02D0044800E015
S11300D000BF0123237010BD300400200000000085
S11300E084300000084B10B5002B03D007490848A2
S11300F000E000BF07480368002B00D110BD064B89
S1130100002BFBD09847F9E70000000034040020DE
S1130110843000008430000000000000FEE7C04688
S11301201548164910B588420DD0154A91420AD295
S1130130CB439B1800229B0801339B0084588C50AE
S113014004329A42FAD10F4A0F498A4209D2D34360
S11301505B1803218B4300210433D31802C29A4253
S1130160FCD1FF21094B0A4A8B439360094B984702
S1130170094B9847FEE7C046843000000000002089
S11301802C04002030040020B414002000000000DF
S113019000ED00E0F5190000551300008223202231
S11301A0DB055A610D4A90620220137E1842FCD08E
S11301B0936A91620221094A137E1942FCD0936A20
S11301C0002302219362054A137E1942FCD0936AEC
S11301D082232022DB059A617047C0460004004256
S11301E0822320220221DB055A610302174A1B0ED7
S11301F09362137E1942FCD00221936A03041B0EFE
S11302009362124A137E1942FCD0936AFF2302219F
S1130210184090620D4A137E1942FCD0936A002361
S113022002219362094A137E1942FCD0936A002387
S113023002219362054A137E1942FCD08223906AFC
S11302402022DB05C0B29A617047C0460004004218
S1130250822320220221DB0510B55A6103021D4AC4
S11302601B0E9362137E1942FCD00221936A03048D
S11302701B0E9362174A137E1942FCD0936AFF2324
S1130280022118409062134A137E1942FCD0936AEB
S11302900023022193620F4A137E1942FCD0936A11
S11302A00023022193620B4A137E1942FCD00023DF
S11302B00221946A9362074AE4B2137E1942FCD085
S11302C08223906A20220002DB05204380B29A61D7
S11302D010BDC0460004004282232022DB0510B575
S11302E05A6180230224020C5B421343124ADBB29C
S11302F09362137E1C42FCD00224936A03041B0EF7
S113030093620D4A137E1C42FCD0936AFF2318406B
S113031090620220084A137E1842FCD0936A9162CC
S11303200221054A137E1942FCD0936A82232022BB
S1130330DB059A6110BDC0460004004282232022DE
S1130340DB0510B55A6180230224020C5B4213437F
S1130350164ADBB29362137E1C42FCD00224936AD9
S113036003041B0E9362114A137E1C42FCD0936A51
S1130370FF231840906202200C4A137E1842FCD0DE
S11303800220936ACBB29362084A137E1842FCD0CF
S1130390090A936A91620221044A137E1942FCD02D
S11303A0936A82232022DB059A6110BD0004004277
S11303B082232022DB0510B55A6180230224020C1B
S11303C05B421343204ADBB29362137E1C42FCD08F
S11303D00224936A03041B0E93621B4A137E1C427D
S11303E0FCD0936AFF23184090620220164A137EC1
S11303F01842FCD0936AFF2302200B409362124AF6
S1130400137E1842FCD00220936A0B041B0E9362E5
S11304100D4A137E1842FCD00220936A0B021B0E75
S11304209362094A137E1842FCD0090E936A9162C2
S11304300221054A137E1942FCD0936A82232022AA
S1130440DB059A6110BDC0460004004270B5104837
S1130450104B98470400830706D10F4B9C46644415
S1130460601E8441E0B270BD01210C480C4DA847C8
S11304700C4E00210C48B04700210C48B047002125
S11304800B480C4B984700210448A847E5E7C046B1
S1130490742530005102000004F0FFFF20203000DA
S11304A0D90200003D030000F8203000FC20300099
S11304B000213000B103000010B5044B01201B786B
S11304C0002B01D1024B984710BDC0467004002098
S11304D04D040000032230B5140004230C401C1BFF
S11304E0144000290ED001398DB2022101350D4A84
S11304F0451903789362137E1942FCD00130936A44
S1130500A842F6D1002C0BD000200221054A9062AB
S1130510137E1942FCD0013CE4B2936A002CF6D15C
S113052030BDC04600040042F0B55746DE464E4694
S11305304546E0B5824683B00F1E37D01F4B0225D7
S113054099468223DB059B461D4E1E4CF023B8467C
S11305501B019F4200D998465B4620225A61B02372
S1130560A362237E1D42FCD0A36A2523A362237EBB
S11305701D42FCD0A36A7823A362237E1D42FCD0D3
S11305806A46A36A4346D380D18850460E4B9847A7
S11305905B4620229A614346C244FF1A3378002BFB
S11305A0FCD1C8470028F9D1002FCFD103B03CBCFF
S11305B090469946A246AB46F0BDC0464D040000A5
S11305C07004002000040042D5040000F0B5822429
S11305D0C6460826E40500B5704D66610620A847A6
S11305E0A6611520A8476E4C00214820A047002191
S11305F00020A047C8242820A8470120A84769480C
S1130600694EB047640008E00120013CA847A4B249
S11306106448B047002C00D1BEE07C28F4D13324D8
S1130620032706E0013C0120A4B2A847002C00D116
S1130630B2E05E48B0470742F4D182232022DB05B2
S11306405A61B02302215A4A9362137E1942FCD0A4
S1130650936A252302219362554A137E1942FCD0E2
S1130660936A782302219362514A137E1942FCD083
S11306709421936AC9004F4B4F4898478223202204
S1130680DB059A614D4B4E4E98463378002BFCD1D6
S1130690C0470028F9D14B4F0F214B48B847BA2126
S11306A04A4CC9004A48A0474A494B48A047012040
S11306B0A84700213D48B8476E20A84780214648F6
S11306C00902A04700214548B847C8214448890089
S11306D0A047E82143488900A04758214248A04741
S11306E000214248A04730214148A047F021414819
S11306F04900A04740494148A04720214048A0471D
S113070000214048A04703213F48A04700213F481B
S1130710B84701213E48B84700213E48B847032165
S11307203D48B84796213D48C900A04700213C48B0
S1130730B84700213B48B847C0213B48C901A047FE
S11307408021C020394C89048003A04738493948A6
S1130750A04700213848A04702213848A0478021FB
S11307603748B84702213748B84720211B48B847C3
S113077005243378002B0BD0013C0120A4B2A847F8
S1130780002CF6D1304B9847012004BC9046F0BDB4
S1130790C0470128F0D0F5E70020F6E71911000062
S11307A09D01000000203000E10100002020300005
S11307B000040042D5040000941B00004D04000016
S11307C070040020D9020000142130003D03000011
S11307D0682130000880000098203000D4203000C8
S11307E0342030002C2030003020300038203000FD
S11307F03C203000482030000D0200004020300032
S1130800442030004C203000502030006420300060
S11308106C203000682030000421300018213000A2
S1130820802030008420300088203000B103000094
S11308300700002604003000080030005420300077
S113084094203000702030003511000070B50A4C3F
S11308502378002B06D0094D2378002BFCD1A84720
S11308600028F9D12A22064B1A70064B064A1A6050
S11308700122064B1A8070BD700400204D04000054
S11308804C0400208004002000B025787C04002063
S1130890002210B5024B1A70024B984710BDC04697
S11308A04C040020A511000082232022DB055A619C
S11308B0B02302211C4A9362137E1942FCD0936A2E
S11308C0252302219362184A137E1942FCD0936AAD
S11308D0782302219362144A137E1942FCD0936A4E
S11308E0FF230221034093620F4A137E1942FCD076
S11308F00221936A03041B0E93620B4A137E19426E
S1130900FCD00221936A03021B0E9362064A137EF3
S11309101942FCD00221000E936A9062024A137EAF
S11309201942FCD0936A70470004004270B5060077
S1130930E3203D4B40420D0014009847FF23022161
S11309403A4A33409362137E1942FCD00221936ADF
S113095033041B0E9362354A137E1942FCD00221E4
S1130960936A33021B0E9362304A137E1942FCD001
S11309700221360E936A96622C4A137E1942FCD0E9
S1130980936AFF2302212B409362284A137E194263
S1130990FCD00221936A2B041B0E9362234A137E1C
S11309A01942FCD00221936A2B021B0E93621F4A48
S11309B0137E1942FCD002212D0E936A95621B4AC4
S11309C0137E1942FCD0936AFF23022123409362D1
S11309D0164A137E1942FCD00221936A23041B0E8B
S11309E09362124A137E1942FCD00221936A2302B5
S11309F01B0E93620D4A137E1942FCD00221240E71
S1130A00936A9462094A137E1942FCD0936A822342
S1130A102022DB05064C074D9A612378002BFCD17C
S1130A20A8470028F9D170BDA908000000040042BD
S1130A30700400204D040000F8B50700DC201E00FF
S1130A4040422B4B0C0015009847FF230221294AF2
S1130A503B409362137E1942FCD00221936A3B040B
S1130A601B0E9362234A137E1942FCD00221936A1F
S1130A703B021B0E93621F4A137E1942FCD00221D3
S1130A803F0E936A97621B4A137E1942FCD0936A05
S1130A90FF23022123409362164A137E1942FCD09D
S1130AA00221936A23041B0E9362124A137E194295
S1130AB0FCD00221936A23021B0E93620D4A137E1B
S1130AC01942FCD00221936A230E9362094A137ED1
S1130AD01942FCD0936A82232022DB059A61E30643
S1130AE005D4002D03D031002800034B9847F8BDEE
S1130AF0A9080000000400422905000070B50600A2
S1130B00DE20194B40420C0015009847FF230221B8
S1130B10164A33409362137E1942FCD00221936A31
S1130B2033041B0E9362114A137E1942FCD0022136
S1130B30936A33021B0E93620C4A137E1942FCD053
S1130B400221360E936A9662084A137E1942FCD03B
S1130B50936A82232022DB059A61002C03D02900AA
S1130B602000034B984770BDA90800000004004210
S1130B7029050000F0B52D4B1B78002B10D1002463
S1130B8002212B4A035DE5B2002B34D09362137E1D
S1130B901942FCD00134936AFA2CF3D102202FE0DD
S1130BA005000100FA350023224C234E10E00133E6
S1130BB0DBB2032B09D923880F689BB25A1C9B0014
S1130BC0F750002392B2228004310130854202D0D2
S1130BD00278002AEBD10A68022B1ED0032B22D004
S1130BE00021012B1CD023889BB25A1C92B29B007B
S1130BF02280F150F0BD032005400420401BC0B208
S1130C00002402210A4A9462137E1942FCD001385E
S1130C10C0B2936A0028F6D1ECE71204110CE2E7A3
S1130C20FF211140DFE71202110ADCE74C04002027
S1130C30000400427C04002080040020F8B5070072
S1130C40F4201C004042274B0E0015009847022157
S1130C50254AFBB29362137E1942FCD002213F1253
S1130C60FFB2936A9762204A137E1942FCD0022194
S1130C70936AF3B293621C4A137E1942FCD0022198
S1130C803612F6B2936A9662174A137E1942FCD062
S1130C900221936AEBB29362134A137E1942FCD089
S1130CA002212D12EDB2936A95620F4A137E194206
S1130CB0FCD00221936AE3B293620B4A137E194279
S1130CC0FCD00221240A936A9462074A137E1942D3
S1130CD0FCD0936A0698054B984782232022DB05B3
S1130CE09A61F8BDA908000000040042750B0000D9
S1130CF010B5054B1B78002B05D1044B9847822374
S1130D002022DB059A6110BD4C040020A9080000D4
S1130D1004490B889BB25A1C92B20A80024A9B0077
S1130D20985070477C0400208004002030B5E225F0
S1130D300C4A6D4213889BB25C1CA4B214800A4C0A
S1130D409B001D5113889BB25D1CADB215809B00A6
S1130D50185113889BB2581C80B29B001080195103
S1130D6030BDC0467C0400208004002010B5194B1F
S1130D7004001B78002B00D010BDF720164B404216
S1130D809847FF230221154A23409362137E194298
S1130D90FCD00221936A23041B0E93620F4A137E34
S1130DA01942FCD002212402240E936A94620B4A55
S1130DB0137E1942FCD0936A002302219362074AEE
S1130DC0137E1942FCD0936A82232022DB059A61A8
S1130DD0D2E7C0464C040020A908000000040042E9
S1130DE0F0B5D6464F464646C0B582B00AAC9946E1
S1130DF00023E45EF32392466A46A4460BAC26889D
S1130E00174C5B4225880904ADB26F1CBFB2278022
S1130E10144FAD00EB5125880818ADB26B1CD3807C
S1130E20D388AD0023804B462188E85189B2481C01
S1130E3080B21B04208089005344CB51238836049C
S1130E409BB266445A1C9B0092B2DE510C98064B2E
S1130E502280984702B01CBC90469946A246F0BD39
S1130E607C04002080040020750B0000094A10B5A2
S1130E701388094C9BB2591C89B21180F6219B003E
S1130E804942195113889BB2591C89B29B001180A5
S1130E90185110BD7C04002080040020F0B5D22736
S1130EA0124C7F4225880904ADB26E1CB6B226806E
S1130EB00F4EAD00AF5125880818ADB26F1CBFB2FC
S1130EC027802188AD0089B2A851481C80B22080B7
S1130ED01B049A18238889009BB28A515A1C92B227
S1130EE02280059A9B009A51F0BDC0467C040020E4
S1130EF080040020094A10B51388094C9BB2591C80
S1130F0089B21180D7219B004942195113889BB2A1
S1130F10591C89B29B001180185110BD7C0400201B
S1130F2080040020F8B51C00394B07001B780E0024
S1130F301500002B00D0F8BDBD20364B4042984729
S1130F40FF230221344A3B409362137E1942FCD0B2
S1130F500221936A3B041B0E93622F4A137E1942AB
S1130F60FCD00221936A3B021B0E93622A4A137E31
S1130F701942FCD002213F0E936A9762264A137EDF
S1130F801942FCD00221936AF3B29362224A137E7F
S1130F901942FCD00221360A936A96621E4A137ED5
S1130FA01942FCD00221936AEBB293621A4A137E6F
S1130FB01942FCD002212D0A936A9562164A137EC7
S1130FC01942FCD00221936AE3B29362124A137E5F
S1130FD01942FCD00221240A936A94620E4A137EB9
S1130FE01942FCD0936A0023022193620A4A137EB9
S1130FF01942FCD0936A002302219362064A137EAD
S11310001942FCD0936A82232022DB059A6192E77D
S11310104C040020A908000000040042F0B5BD27DC
S1131020104C7F4225881204ADB26E1CB6B22680E5
S11310300D4EAD00AF5125885118ADB26F1CBFB233
S11310402780AD00A851208880B2451CADB2258010
S11310502288800092B28151511C89B2920093512E
S11310602180F0BD7C0400208004002010B5054CD4
S113107082B02478002C03D1049C0094024CA04735
S113108002B010BD4C0400203D0C000030B5D92541
S11310900C4A6D4213889BB25C1CA4B214800A4CA7
S11310A09B001D5113889BB25D1CADB215809B0043
S11310B0185113889BB2581C80B29B0010801951A0
S11310C030BDC0467C0400208004002010B5074BCE
S11310D01B78002B08D18023DB041843044B98476A
S11310E082232022DB059A6110BDC0464C040020F7
S11310F0A908000006490B889BB25A1C92B20A80C8
S11311008022D2041043034A9B0098507047C04683
S11311107C0400208004002000280AD0FA235B010C
S1131120C046013B9BB2002BFAD1013880B20028A3
S1131130F4D170470023154A138013889B07FCD40D
S1131140012113880B431380104A1388DB07DB0F3C
S1131150FBD10F4908001030516390630D4850646F
S11311603F201354C33010800B4808800B4888601C
S1131170CB6002214D33D154C121094A890053580F
S11311801B021B0A53508023136070470060004108
S113119050040020000380000104000028040042E1
S11311A000E100E00F49104A0B8830B59B00013B79
S11311B09BB253800B880D499B005B180C4953600C
S11311C04B680C48022503404B60822320214020B9
S11311D0094CDB055961235C2B4323542A235354C4
S11311E030BDC0467C040020500400208004002050
S11311F000040042FFFFFDFF0060004100213F2288
S11312000A4B99540F3202319954094A137E9B07B1
S1131210FCD5802351689B020B4353608222202318
S11312200021D2059361034AD15470470060004104
S113123000040042500400200221084A13688B4332
S11312401360D3699B07FCD40221107313680B430A
S11312501360024AD3699B07FCD470470004004220
S11312602A22014B1A707047710400200422114B8A
S11312705A60114A114B1382D368DB07FCD5104B1B
S11312800D495362172313622B33137730228B5C7F
S11312909B07FCD50B4A0C4B136253685B07FCD4C9
S11312A00021054B5975094B5362064A53681B07C5
S11312B0FCD470470040004100100040466B000021
S11312C010000300001C0040072300000623000058
S11312D0822308212022DB0510B599609A605961A8
S11312E09A61154A06399A62144A9A62144AD36971
S11312F00B43D361CC23134A3E31D1500023124A0D
S11313001360D3699B07FCD4104B136013689B07CD
S11313100DD402231373802302210B4A9B025360D2
S113132013680B431360D3699B07FCD410BD0220E0
S1131330074B9847EFE7C04610000353C0004153E2
S113134000080040001C0040000400420C000100A2
S113135039120000F8B5DE4657464E464546434B23
S1131360E0B59847424B98478023424A5B02D169D3
S11313700B43D361802341213F4A5B00D15080223B
S11313803E4BD2001A601A683F390A431A601A6940
S11313909207FCD4C0213A4A3A4B3B485360036A53
S11313A009061B021B0A0B430362002393600733E5
S11313B01360802282231205DB059A60334B984721
S11313C0334B1A6892074CD401221A7300239846AF
S11313D0304B00279A46002399468223DB059B461F
S11313E02D4E264C3378002BFCD04B4633704346AD
S11313F00133DBB29846272B05D980235A461B05B7
S1131400D361002398464B46A382602363716379BA
S1131410002BFCD1214B9847802363716579EDB291
S1131420002DFBD1A08A032180B2D04701371C4B89
S1131430FFB21880032FD5D96023A5826371637925
S1131440002BFCD1174B9847802363716379002BE1
S1131450FCD1A08A032180B2D047134B0027188007
S1131460C0E70120114B9847B0E7C0466D12000059
S1131470D112000000080040001C0040004000425F
S113148010E000E07FA9030000ED00E07516000005
S113149000040042DD18000071040020DD16000085
S11314A08C1400202D170000841400203912000031
S11314B010B50A490A4C0B48A0470B490B48A047F2
S11314C00B490C48A0470C490C48A0470C490D484F
S11314D0A0470D490D48A04710BDC046E4090100CE
S11314E0B103000050213000A60700005421300051
S11314F0BA1EECFF582130002C0700005C2130009C
S11315006A09010060213000CF69F4FF64213000D2
S113151070B53E4882B03E4CA047C0208004A0472E
S11315203C4B3D4898479C208005A0473B48A0473A
S11315303B48A0473B4D3C48A8478020C005A047F6
S11315403A48A04784208005A0473948A84739482D
S1131550A047F8203823382200210003364EB04734
S11315603648A04784208005A0470020A847344877
S1131570A0473448A0472D48A04784208005A047B1
S1131580A021314B314C00931A220023FF310A2051
S1131590A047D7212E4B1A220093490000230A208A
S11315A0A047BE212B4B1A220093FF3100230A20AF
S11315B0A047E621284B1A220093490000230A2061
S11315C0A047BE21254D00231A22FF317D2000951E
S11315D0A047E621009500231A2249007D20A04758
S11315E01F4CA0470028FCD11E4B1F4898471F4B97
S11315F002001860C021FF20890300031C4B984798
S1131600A0470028FCD102B070BDC04600FFFFFF18
S1131610F10C00006D0D0000C0C0C0000900001FE7
S11316201000000ECD100000E2AD5D0040009041BE
S1131630FFFFFF000100001F250F0000050073419C
S11316400300001F40000040382000006D1000001F
S1131650402000004C200000542000005C200000CA
S1131660B904000051020000002130008814002059
S11316702D09000010B50E4B9847002817D0012201
S11316800C4B30211A700C480C4B98470C4B984764
S1131690F820EF220B4900030B4B9847FA200B4B21
S11316A00B4A022100030B4CA0470B4B984710BD7B
S11316B0CD05000074040020D4203000D9020000BD
S11316C0B11400006C2F0000FD0A0000040F00009C
S11316D068200000390A00001115000010B50F4BF6
S11316E09847002800D010BD0D480E4B984700289D
S11316F00CD00A28F7D10C4B5A78002AF3D12A21AE
S113170059705988002904D05A80ECE7064B587068
S1131710E9E70132FF325A80E5E7C046B904000028
S11317202C213000E101000074040020F0B5D646FD
S11317304F464646C0B54B4D84B02B78002B05D19F
S113174004B01CBC90469946A246F0BD464B47489F
S11317501E88B600B3B29A46454B9847454B81461E
S11317609847454C4548A0474548A0474548A047A9
S1131770C0208004A047FF20434B00031968434B5B
S113178098474348434FB847434B444898474448D5
S1131790A047444B502202936B88142101931C23CD
S11317A014200093404E0233B047C0208004A04769
S11317B0FA2064226423072100033C4EB047DA2058
S11317C04042A047C8218C20394B8903C003984666
S11317D09847384B6868984737493848C047D620F7
S11317E04042A0476B88002B03D06B680133FF3362
S11317F06B603348A0473348A04784208005A04746
S11318008C208005A0470020B8475346A0210093B0
S113181080232D4D1B011A22FF317820A8474B4607
S1131820D721009380231A221B0149007820A8475E
S1131830BE21264B1A221B88FF3100937820244BAB
S1131840A847E621234B1A221B88490000937820DD
S11318501F4BA8470020A047FF204042A0471E4B33
S113186098476DE7740400207C04002000213000B8
S1131870510200004D080000110D000000FFFFFFA1
S1131880FFFFFF0207000026881400202D0D000032
S1131890FFFFFF00F51000006D0E0000C0C0C00087
S11318A00A00000360200000E10D00001D1000008C
S11318B08D100000F50E00000000CEFF0000BAFFFE
S11318C00100001F42005E419D0E000084140020B0
S11318D0050800008C140020910800000022430831
S11318E08B4274D303098B425FD3030A8B4244D3E4
S11318F0030B8B4228D3030C8B420DD3FF22090226
S113190012BA030C8B4202D31212090265D0030BE4
S11319108B4219D300E0090AC30B8B4201D3CB03DA
S1131920C01A5241830B8B4201D38B03C01A52411C
S1131930430B8B4201D34B03C01A5241030B8B421E
S113194001D30B03C01A5241C30A8B4201D3CB0209
S1131950C01A5241830A8B4201D38B02C01A5241EE
S1131960430A8B4201D34B02C01A5241030A8B42F1
S113197001D30B02C01A5241CDD2C3098B4201D309
S1131980CB01C01A524183098B4201D38B01C01A87
S1131990524143098B4201D34B01C01A52410309FE
S11319A08B4201D30B01C01A5241C3088B4201D3AD
S11319B0CB00C01A524183088B4201D38B00C01A5A
S11319C0524143088B4201D34B00C01A5241411A81
S11319D000D20146524110467047FFE701B500208E
S11319E000F006F802BDC0460029F7D076E770473C
S11319F07047C04670B50D4E0D4D0024AD1BAD10A3
S1131A0005D0A300F35801349847A542F9D101F059
S1131A1027FB084E084D0024AD1BAD1005D0A300D4
S1131A20F35801349847A542F9D170BD6C300000D9
S1131A306C3000006C30000074300000034B10B5B3
S1131A40002B02D0024800F005F810BD0000000091
S1131A50651A000010B5010000230022002000F0E8
S1131A601FF810BD70B5094B094CE41AA41009D035
S1131A70084AA518AD00ED182B68013C9847043DB1
S1131A80002CF9D101F0F6FA70BDC0468030000098
S1131A9084300000FFFFFF3F7047C0467047C046D8
S1131AA0F0B54E464546DE465746E0B5364D83B062
S1131AB00600286898460F009146FFF7EDFF334B68
S1131AC01C68A4235B00E058002852D043681F2BF5
S1131AD013DC5A1C0192002E28D1019A02339B0078
S1131AE042601F502868FFF7D9FF002003B03CBCB8
S1131AF090469946A246AB46F0BD254B002B3DD0FF
S1131B00C820400000E000BF002837D0A4220023F2
S1131B105200A15843600160A05040328350043207
S1131B208350013301930023002ED6D09A009246AD
S1131B3082444A46882154466250C4225200914647
S1131B4081444A468739994012688B460A43944631
S1131B504A4661461160842241465200A150022E39
S1131B60BBD102005C468D32FF3211680C43146015
S1131B70B3E720004D30FF30E050A7E72868FFF7B7
S1131B808DFF01204042B1E7280400205C300000B2
S1131B90000000001AFFFFFF2020300004000000B6
S1131BA00200000022FFFFFF00B0300078DAED549D
S1131BB0DD6F5445143F33B35DA094656F4C052C21
S1131BC08D7B6FA10BDB9A10091011E59C4B1A0B4E
S1131BD00D15E30310FCB8B32DDB8F2D297D904840
S1131BE043649647BD71122411A564A5C610201143
S1131BF095C4F080A110A42636F000D148820F26A7
S1131C007D3042521E4C131FAC672E8B18FF04E329
S1131C109DCC9C337366CEE7EFDC05AA5E81894BCD
S1131C20C2D8625E677573794C83B17D597D527BEE
S1131C303CF33A8EF2CCB9F3BC769CE39BCBEEEE4C
S1131C40C3FBCDE5475C1CA9BEB8548F718935F43C
S1131C5067B5ED57FD7189E9300CC6A5B5688B19D8
S1131C6054FD9B724ABF00368AA30C3E83CF811772
S1131C70D9225B1F8041F6A3AFD50893D56B23CB44
S1131C805E6C036F28AB53180FA5B1DE746117BCEB
S1131C908CCE962A66B5574E56B6AA86D7F1791ACF
S1131CA0F3FC024C73D98BDECEAD8884513D23B94D
S1131CB02771172EC74CB23697B7E00028BD1C9584
S1131CC0B63A834F981E4C2262EAA2D8858D6627C5
S1131CD0AA28C06535C992BF254D2CB1D14AD30578
S1131CE0CEBB0506D82F35607B163267FBC0541176
S1131CF04AE3B9386A335BA160B6A330AB8D8B413C
S1131D009842420B662B9E4B245093B8938B7011D0
S1131D10EBD8676FEFF55C0AAFC2282C3A7D053B20
S1131D20703267F5044EC0059CC2333CBF864B6ECF
S1131D30ADED2EC0799CC073B8DA78433F732E0B97
S1131D40660A61E832EB72B69476B229BC0C874D10
S1131D50CA7C0C60EE23A1EABD8117F9D48BE61985
S1131D603530CD345DA375359AAA5155A3B2464595
S1131D7042A7F10E2EF101E28898B3C53BB894FE58
S1131D803184300FB089C04C83C46968A25651A015
S1131D90A5FF1AADA2895691D2B7C037AFC2D33CC2
S1131DA05B78E6B8AE1B29839B28E01D57B3E81087
S1131DB0373707A5935117A5316536E04BB4516CFD
S1131DC0121DE245E16EAFE02AD4192F82C16EEAFA
S1131DD0C0D7FC384AA2182EFBAE366A44F50E0969
S1131DE09BA01678CF68F01D5AB28C1C18DC2FA665
S1131DF0703DFBD0C06F38EFEE5DFFFB3E6320C14A
S1131E004B3DBEEB7BE56EDAC2554FE13B6214EE0F
S1131E10E3EBDC0BDD9519B474C29F6F60C018D579
S1131E203B8BB39CD745E61318238775CEABCEA264
S1131E304381EA3DEB0B68675440DFA7FE28A365A6
S1131E405C542B962EF9DBCD07740B5B683D394B44
S1131E50DF0830191C77FCDE713156F94AB4D39C83
S1131E60B53DD7A89D07FBC796F2FA5B3A845E7925
S1131E700735978B6206A59945D6206ED364651FF6
S1131E80592D516217CDCDC5D16DBAC6238DBFF979
S1131E90193C84DF99FB6214EF928B14D9FA29FA66
S1131EA0893AB15A394F336CE914FDC2BB31DECDE6
S1131EB0728D6030AFDB6B366F8A169A676C4F3A5F
S1131EC0FCB3B24FA4C302992427AAC7C9A7C55516
S1131ED06A083BB1512E3802E64B72113770BC418F
S1131EE0D0894D720A73373AD0C5AD7A57068C6ED5
S1131EF02AD07CA3466CF16812F562D6BB86352ADB
S1131F00DD16B685D37494B1C2D1C0555AC73A37D9
S1131F10CB02E51389BBA1E49A70CB917DF4BCDCC0
S1131F2076E429C9B529C390D7B73350FA15D91027
S1131F30D9C8EB6DE3BC7ADA8E3CAAE070F0B882C3
S1131F40E5E07105DF94A350A5B782BB847440EE2D
S1131F50A155DC738BCD62E3F41D667D0725F37B0D
S1131F60DF0B1A5C3FF3743DBF8A7BF4A054BA4A7A
S1131F701F05AEF77787C7F8FD87F2616691BE90BB
S1131F800E55EEDDE7C19E30CD1978F80FDC1D9EAD
S1131F900946B91E67E521FE17EDA0AC3EC15ADE25
S1131FA0E0E80EC8385A688EE3786E0615D3CB4144
S1131FB0966397DCF757A4329F31EFEA3A8E006DAF
S1131FC06C7B124FE32464F8DECD607F781AABE4B7
S1131FD0453F2411FCC81174F2BBE3588FF7024B40
S1131FE0BF06823BBC0B37F01FF37A98E2B7CF9A57
S1131FF049BC27DB2B69DE57298F8D8CAF4970B81C
S1132000FC3DB8105AFA23A85277B039745EC896CA
S113201016BEB32C680CEB549566FC599AC163E464
S11320206AF27DF840C2FFDF7FF2530BFF0246D60F
S1132030E2800000A004000042797465733A000055
S1132040444C2D73697A653A0000000054696D654B
S1132050313A000054696D65323A0000757300002E
S1132060546F756368210000FFD8FFE000104A46F2
S1132070494600010101006000600000FFDB0043ED
S11320800005030404040305040404050505060708
S11320900C08070707070F0B0B090C110F1212117D
S11320A00F111113161C1713141A151111182118D6
S11320B01A1D1D1F1F1F13172224221E241C1E1F3E
S11320C01EFFDB0043010505050706070E08080E81
S11320D01E1411141E1E1E1E1E1E1E1E1E1E1E1E3D
S11320E01E1E1E1E1E1E1E1E1E1E1E1E1E1E1E1E0C
S11320F01E1E1E1E1E1E1E1E1E1E1E1E1E1E1E1EFC
S11321001E1E1E1E1E1EFFC0001108006400640374
S1132110012200021101031101FFC4001B00010090
S1132120030101010100000000000000000000059F
S1132130060704030801FFC4003B10000103030366
S11321400204040306040700000000010203110056
S113215004050612210731132241613251718114A1
S1132160151708425491D2E26693A4C1162324524F
S11321708294A1FFC4001B010003000301010000BD
S1132180000000000000000000050603040701022F
S1132190FFC400361100010204040306040505010E
S11321A00000000000010203000405112131415127
S11321B00612711322618191F014A1B1C11542D1AB
S11321C0E1F116233233B2D2FFDA000C030100022C
S11321D0110311003F00FB2E94A5104294A5104258
S11321E0A0F5EE5D583D2192C9B6A5A5D6992969F9
S11321F04948252E2884A0C1E2028827DBE75395AD
S113220090FED179648671B826D482A528DD3A0A75
S11322104EE48129441ED0657C77E076F5C330E72F
S113222066D95434A349FC64F36D1185EE7A0C4FDE
S1132230E9148E9165D588D7960ADCB0D5DABF0A41
S1132240E84A412A0B8091CF61BF6131CC0FB57D43
S11322502B5F366B8D32BC2E0F0F75B9B2A0D783AE
S113226071B5BDA4B854B5824FAF076F3CC207D057
S11322706FBA3F2C9CE698C7E5429054FB20B9B155
S1132280242438385800F301408FB7AD2CA34EB343
S113229034D92D2AE3DDF38A0E2D421FECE75AC808
S11322A0DD27C8E1EB8C4B5294A731170A529441B5
S11322B00A5294410A5294410A5294410AC1751D2A
S11322C0C2B547598B5FF38DBD9BDE0A46D00A1217
S11322D0D495723D0AF7193CC1038E056C9AC32C40
S11322E09C1E98C8654A9014C324B7BD24A4B8782A
S11322F040207305440FBFA5631D1AB3421591CC4A
S1132300DC25286DA486D2EA8C01FBCBFA40DBCF16
S1132310BFD6A6B8A673E1E4576CC8B7AE03EB7F8B
S113232028ABE1E6C312EFCEAB41CA3A9CFD308B39
S1132330A6BCB0FCC349DFB010B5AD2DF88808EEDB
S1132340549E47D7B76AF1FD9DF25E3E9CBEC62DF2
S11323506F29769701C4EE3294A16384A79E3CC989
S11323605923DFDCD73E98D56F66F22BB0BCB7B7E4
S113237069BF09459015C9E67699F88C13DA3B1EB6
S11323803E557E9E5C0D2FD5A5E3DD4A5A62E1C51C
S1132390DA79815109590A6E20F72420499E099F50
S11323A0989CE130E53E69728EE782BD458FA1B00D
S11323B08F69932D55E92FB6C9BF2F787967F2FA43
S11323C0C6FF004A52BA4449C294A5104294A510CB
S11323D0466DFACDA63F80CBFF0094DFF5D3F59B85
S11323E04C7F0397FF0029BFEBAA47513A657D81D3
S11323F0F12FF0E1EBEC5A1BDEE15105D6622770B8
S113240011B87AC81C0998892D0A9D0997C7B38EFB
S1132410C9E2916F99DE96D0AF1DEDB733D88854D9
S1132420255E8418049E3BC04B333AFCBA14A58F36
S1132430F117B5B136DA3A0FE13465CB099652A5F6
S1132440A75E5388EA30B7B3963168C8F5AEC50FB6
S1132450818FC15C5C35B7953EF069415F28015CB2
S113246076E67ED5CBFADDFE1AFF005BFD953B8B4D
S1132470D21A7AD8ADAB6C3DA2CBD00F8E3C5EDDC8
S1132480A0AE76F7F489AE4CC33A37117A6CEFF10B
S1132490F8B69F090A5205A256520F69DA9307DB70
S11324A0E9F3A9947173CF8E797656A4EE1233DBD7
S11324B00BC2D75FE1F971FDC6AC372AB7DED14C48
S11324C0EA07529DD55834E2DBC62EC13E325C7118
S11324D049BA2B0E2403E52368E2483F548A96B494
S11324E047E4DD296912869FBD4832913BFC433C99
S11324F0F1DFC3E3EDF4AEBBBC9E8565B0B6F15627
S1132500772498DADD8A411EFE600543EB3D416F76
S11325109B4DA37689B96D0D1515A5C00024C41E65
S113252009EDCFF3AD498989AABBECA5C6549485BE
S11325305C9236D212F10712D345315292361AD830
S11325402AF89C33F3BE7A445615F731B97B0BD77E
S11325500A996FC40ADE5120B7252A238E446E1CC3
S11325607C8FAD76F582D55639FB0CBDAB85975E75
S113257047C4DCA5416D910B91EB0523FF001AB113
S1132580F52F4DA313A6B06F368692B61BFC33E528
S11325902B51DCA32B913E9BBC43E9F10FB73B7A53
S11325A0AF06F62AD6CF298FB8BE534846F2EB4879
S11325B0701584C157995DFBF3EF5BB59977E567B7
S11325C09A9A65055604280DB4F9C22E11AB2283DC
S11325D032B6E64D93607ADC623E9E91EA3ADD02C1
S11325E03FE1AFF5BFD94FD6EFF0D7FADFECAF6FCD
S11325F0C6E81FE0F1DFFA1FDB53589C2E9CC95834
S11326007E636189C53D6E144157E19BE08F4208AA
S1132610907D88F51F3A3FAA2700B9975D867DDD36
S11326203D22CDB9FE1C755CADB409F059FF00D450
S1132630715975A304BB642AF7179165F33B90D6CF
S1132640C71239E2145492788F415EDFACDA63F832
S11326501CBFF94DFF005D7264B4968DB743F92B2E
S1132660FC7B2C32825C795E2B894264FF00DA9316
S1132670C0930001EA001DAB37D50AC2E533271B1E
S1132680A374FAC34150DB882F38F3F00C9092A363
S113269009F5889E2491240694CAF9A8A14B6810D0
S11326A006188CFA5AF0D65295499C51ECDA581A0D
S11326B09BF7479DFF0078D4FF0059B4C7F0198FEA
S11326C0B34DFF005D2A374D746EC9CC434EEA0BFF
S11326D0CBD6EF97E65356AE2025B1E8924A4C9FED
S11326E0991C7A09892A760CD917C2345C470DA142
S11326F0653751B6D7B46B679ACABA85D2962F3F5D
S1132700EBF4B36D5ABE3729DB55288439DCCA3D56
S1132710126788E13DBE18E755A56DB8D25D165025
S113272089B90A8CC4839DA30AB6E343D447CFBABC
S11327304F5DDF62EE0E3351A6E1E4878A56F3A4BF
S1132740979932770503CAA0FDC73DF8156CD53AB1
S11327506EDF34D3995B07CAEEDC421488582DBC73
S1132760902041F42444198E3DE45AFA83A1F1DA0D
S1132770BAD9B2E2FF00097CD70D5D251B8ED9E5DD
S11327802A12370EF1CF07B7720E416779A8FA798A
S11327909936195B775764A594ED325B7008256D03
S11327A028F13C8FE70403DA16A9437E4DE339216F
S11327B082B51A2BCB7F7818A3999290E246086DC4
S11327C0212E6653F749DFD9DCFB6975E12D72C50B
S11327D09D4960F3ACA8F86A21C523C133C9291CFB
S11327E09F4E27813C1315AE59E88D207C1BAB7C92
S11327F06B6EA4C38DABC75AD0A1DC182A208FFE00
S11328001AA9EB4B6C76534D232EB5EC28652EB0EC
S1132810E84C9525705283EC491F424FBCC8F441E3
S1132820CBF5E22F52F38A55936EA536E0904255CC
S113283004AC0F503949F97263D69C506A6DD410B8
S11328406E8B1181046475F79C7314480909BF8465
S1132850792157C41B0B8EBEFF006BBE63176197B3
S1132860B236791B64BEC6E0ADA490411D882390A6
S11328707E9F3354DD5181D03A76C93737F8D5126B
S1132880B3B5B69B7DC2B59F58054381EA7FDC8A08
S1132890BF5617AB51737BD447ACF30F3D0ABA0D47
S11328A0236C1296947C807A01047F32482669CC8A
S11328B0F3C861A2E285EDE1B467AA14212921B02D
S11328C0A528D81206111584C43B9ACA299B442D05
S11328D0AB60A95AD7E6F0913C49E372BF94FB0977
S11328E08BC3B7788D0F8269ABA7DD585B93B502B4
S11328F05C7566028A5248000007A81C0E64F3E562
S1132900ABF3569A3B0ECA2C6CDA0F3F2961B09890
S11329104CA40054A8E4F047B9F9F73558D1DA17B4
S113292039AD2ED597CF5CDCDB5A1295075C479DF9
S1132930F06150D83C04C1E1511C880798806DB9FE
S11329409E2172E414B00E5AABAF87B18E315DC3D1
S1132950BC2D2D20CFC6CE2EC37DFC123EF9C47BE8
S113296008D4FD49CDBB6F687C2B4442CA16B50B15
S113297076009DBBA072A3244C4993D80E368D0FCC
S1132980A2F0FA56D87E11AF16F56D843F74BF8954
S1132990CE64C0EC913E83E426489A9CC563ECF176
S11329A078F66C2C2DD16F6CCA76B6848E00FF003D
S11329B073EA49E49E4D74D5EC953DA946C21032A4
S11329C0F9466AA575C9B4F60C8E4686835EBBF4D7
S11329D0FAE70A5295BF08614A5288215F3FF549D8
S11329E0E1A87AB08C5FE2194348719B14BC8F361E
S11329F0D920A8AB9E4A54B50238ED15BD5FDD332E
S1132A006363717972BF0D861B538E2A09DA948928
S1132A1026072781580F49D0F6535B5E66AECBABD1
S1132A2075B6DC794EA510853AE1DA42A04094A946
S1132A30C2071F0FB4529AC4CA65D82A564013E974
S1132A40157C309EC43F387F226C3A9FE3E7167EA4
S1132A50A75C22DF136960C23C14B8E4843436B640
S1132A601081F0C0F492981EDED5CD8BD5EDE9BD72
S1132A7024CE2F16C255917D2A75F7F7EE4B4A5195
S1132A80F2C0E4156C09E3800C4C9DC2BC3A8ECDB7
S1132A90DDCEA1B5B661B7DE26DB721B424ABF7933
S1132AA052401EC9E7E9ED525A774EDA60528CBEA5
S1132AB059F68BC840504A8795857799F5207AF660
S1132AC00648980AA8EA54FB549A6A5D755DE5DCE9
S1132AD0DB5373A0E96C728E7732CCE4FD55C12EC2
S1132AE032B26FB0D7CCFAFD62231BA8F55606EEBE
S1132AF0CF237AF5EDC5B5C23725AB9754A43A89EF
S1132B00E626769EC41EF041E41E79F5CE56D32FF8
S1132B1095B6CE63D2AB771E693E3A439E743C832E
S1132B201F58DBB208001FA8205A2C754E0736ED3B
S1132B30D6296E3652A3E1ED59E1D1DE47D22647BC
S1132B406227E44D6353693B9C60171665CBCB63E6
S1132B50B8AB6A3CCD0127CD1DC47EF71D8C81C462
S1132B60EE48710A2709967D250A39056B7CAC4D20
S1132B70B1F0B47CD6A833F4D6F94DD48C0E23101E
S1132B8077E9F4D6273A8D668CDE85FCC6DDA3E2B0
S1132B905BA5176896B738504429323E110ADC7B8E
S1132BA08F27B489AE8164BF17A29562B5B3BEC640
S1132BB0E1684A127CDB15E70A509F5529601E3EE6
S1132BC01F635CBA35A37FA35BB3BC53E869F69D6E
S1132BD0614E482A2DA8A924A7BF6048123D3B7620
S1132BE0AAC742EE9FC3EBABFC0DE2FC15BCDADADC
S1132BF05330152F34AEDB84F64F89EB07DF8AF7A9
S1132C00851DEC79E58FE4514F91C47CEF1D225171
S1132C10C351A0AC1CD3CAB1E631FBFAC6E94A528F
S1132C20AEA24A14A5288214A52882291D6EC97E45
S1132C305FA06E5B4ADE43978E22DD0A6CC449DCDA
S1132C40A079EC52950F798ED559E90E35365A4054
S1132C505F1D9E2E41E52C94924F86825090678092
S1132C607778878F4227DA2FF688C9B5719DC762B6
S1132C709BD85568CA9C71495C905C23CA47A101E2
S1132C8000FB850FBFE3BAE71D6B616582D3B6B75E
S1132C90774AB76D16C852580DFE217305494892FC
S1132CA0371255C8DC49A8FE284BF312EB69817230
S1132CB06C3E773B74317B2720FF00E10DB4DA7161
S1132CC07145476B0CAE7D0C5CF546A7B5C3638FAD
S1132CD08EE1096D309403F128F31EE7DBDBD3BDED
S1132CE05231D8BD49D47C838A2A771B84890F2D1D
S1132CF0A90B8240091C6F320C8060473CC4D8B4D5
S1132D00874E6FAF6FDACD6B37038A42D4A6F1A03A
S1132D1085369ED054412238F8477E249E456A2C3D
S1132D2032D5BB086186D0D34DA42508426129035E
S1132D3080001D8562A270BF6452FCE9E658B5B6F6
S1132D400064074FE2D0B9DA8CB534144A596E6A7C
S1132D50AD074DCF8E5D6337CFF48F12E63D8FC83C
S1132D601F731F7F6E243AB5A961E501C6EE7CA6E8
S1132D70403291C49F29E22B181D5795D3F7C30FF6
S1132D80AA6D9EB67C39E57168DA224899ED12384D
S1132D9050907DB935B9544EA7D3D89D478F5D9EC9
S1132DA052D50ECA486DD00788D131CA15E8781EAD
S1132DB0C63991C538AB5065AA2DD942CA191198A4
S1132DC08D594AEA949EC67BBE83AFE61D0EBD0CA8
S1132DD044A2F537CCB6E856E206D9F5FA1F7AC90B
S1132DE0B5C6FD2FD4F63336BF0BAB6EF821B754FE
S1132DF092A930EA49F4DCA4AFB48857DAA5F238D2
S1132E00BD4BD3D754F2D4E6530C36245CA385359A
S1132E103C41492607111F0FC3C8262AB7AF751EA8
S1132E203352E3ED9F69B5DBDF5A3A5BDAA6C12F73
S1132E3034A4833B876DAA07CA67E3907BD49526A5
S1132E4042A14F9F71331882077B7232F3B5FF00A2
S1132E5058A5A449723FCCD1E7656082478EE3311F
S1132E60F6BED1F4903201A5553A4B92FCCF4063A3
S1132E701C52D92E30DFE1D696CFC3B0ED483CF0DA
S1132E804A424FDE7B1AB5D74842B99214358E7F39
S1132E9034C2A5DE5B4ACD248F485294AFA8C10A40
S1132EA05294411F2EF52AF5DBFD7B9A79E4A12A81
S1132EB045DAD91B440DAD9D89FBC244FBD6D7D25C
S1132EC0CD2384C56031F9666DBC6BEBBB66AE1473
S1132ED0FBD0A53654D894A38F28F31F733C93C515
S1132EE0294AA540330ABF8C746E205A9BA3B210A2
S1132EF06C0848C36B08BBD294A6B1CE614A528811
S1132F002040220D605D70D2F89D3F90B2BBC5B6E3
S1132F10B646414F29C6411E1A0A767C023807710B
S1132F203131F281C5295A53C076578AAE0F5A857A
S1132F3043941C08378B17ECDF74FAECB3566A5CC5
S1132F40B0D38CB884C0E14B0B0A33DF9084FF000C
S1132F502AD6E94AC927FE94FBD634F89C01547654
S1132F60DE1FF2214A52B6610C7FFFD9789CDDD274
S1132F70BB16C3200C03D07C3A9FDE214352024689
S1132F8092654E5365E8627479F4384C69B76F47BB
S1132F909A41543ADEE4C51DEDF1D5794F4BF3B0B7
S1132FA08EB1764DABD6B7B8D6F073ADF68CCCE512
S1132FB0EEB1D2C33BEA4FE7F7E28EDD1E3E8BC68D
S1132FC0733AB53F6EF90D0F0DAB8D57E039A7D5A8
S1132FD01B624EB2F23299EFFEFEEBB194DBAAD043
S1132FE06A3CEEBFF7362FD2FEDDAB08E6C5B780EC
S1132FF0EF199D7479F326E61EF21E7BF3396F16E2
S113300087D7B7C471785C767BACE888DF5BADD8D2
S1133010EDE122976885C3EB67E215196F3CB9DAD5
S1133020A1E6CD27D11B61BCEC4B739EFAD2A8A8B4
S11330304EAA628D87BD0AFBD28A58E78DFB504F9A
S1133040CD6EAF6FC5BC5C582F1FC6F304F57C1959
S1133050F7554857B7980FF097899F000000002054
S1133060F8B5C046F8BC08BC9E4670473D1A00003F
S1133070E5000000F8B5C046F8BC08BC9E467047A1
S1073080BD0000008B
S113308400000000EC02002054030020BC030020D4
S11330940000000000000000000000000000000028
S11330A40000000000000000000000000000000018
S11330B40000000000000000000000000000000008
S11330C400000000000000000000000000000000F8
S11330D400000000000000000000000000000000E8
S11330E400000000000000000000000000000000D8
S11330F400000000000000000000000000000000C8
S113310400000000000000000000000000000000B7
S113311400000000000000000000000000000000A7
S11331240000000000000000010000000000000096
S11331340E33CDAB34126DE6ECDE05000B0000005B
S11331440000000000000000000000000000000077
S11331540000000000000000000000000000000067
S11331640000000000000000000000000000000057
S11331740000000000000000000000000000000047
S10F34A400000000000000009014002054
S9030000FC
