S01000004556455F546573742E7372656335
S1130000B8D40020D5020000D1020000D1020000C3
S1130010D1020000D1020000D10200000000000063
S1130020000000000000000000000000D1020000F9
S1130030D102000000000000D1020000E113000022
S1130040D1020000D1020000D1020000D102000060
S1130050D1020000D1020000D1020000D102000050
S1130060D1020000D1020000D1020000D102000040
S1130070D1020000D1020000D1020000D102000030
S1130080D1020000D1020000D1020000D102000020
S1130090D1020000D1020000D1020000D102000010
S11300A0D1020000D1020000D1020000D102000000
S11300B0D1020000D1020000D10200007913000037
S11300C0D1020000D1020000D1020000D1020000E0
S11300D0D1020000D1020000D1020000D1020000D0
S11300E0D1020000D1020000000000000000000066
S11300F000000000D1020000D1020000D102000083
S1130100D1020000D1020000D1020000D10200009F
S1130110D1020000D1020000D1020000D10200008F
S1130120D1020000D1020000D1020000D10200007F
S1130130D1020000D1020000D1020000D10200006F
S1130140D1020000D1020000D1020000D10200005F
S1130150D1020000D10200000000000000000000F5
S1130160000000000000000000000000000000008B
S11301700000000000000000D1020000D1020000D5
S1130180D1020000D1020000D1020000D10200001F
S113019000000000D1020000D1020000D1020000E2
S11301A0D1020000D1020000D1020000D1020000FF
S11301B0D1020000D1020000D1020000D1020000EF
S11301C0D1020000D1020000D1020000D1020000DF
S11301D0D1020000D1020000D1020000D1020000CF
S11301E0D1020000D1020000D1020000D1020000BF
S11301F0D1020000D1020000D1020000D1020000AF
S1130200D10200000000000000000000D102000044
S1130210D1020000D1020000D1020000D10200008E
S1130220D1020000D1020000D1020000D10200007E
S1130230D1020000D1020000D1020000D10200006E
S1130240D1020000D1020000D1020000D10200005E
S1130250D1020000D1020000D1020000D10200004E
S11302600000000010B5054C237833B9044B13B1DA
S11302700448AFF300800123237010BD3004002034
S113028000000000EC2B00000C4B43B10C480D495E
S113029010B5AFF300800C48036823B910BD0A48B9
S11302A0036833B97047094B002BF7D0BDE8104001
S11302B01847064B002BF5D0184700BF000000007C
S11302C0EC2B000034040020EC2B000000000000A4
S11302D0FEE700BF1649174A914208B50ED01648EA
S11302E082420BD2D343034423F003030433134465
S11302F051F8040B42F8040B9A42F9D10F4A104901
S11303008A420AD2D3430B4423F003030433134435
S1130310002142F8041B9A42FBD10A4B0A490B4ABA
S113032023F07F038B609047094B9847FEE700BF9B
S1130330EC2B0000000000202C04002030040020DE
S1130340B41400200000000000ED00E0311A0000A9
S1130350D51400000F4B104A10B40224C2F8944084
S11303601C469862237E9807FCD50A4AA36AA162B8
S1130370137E9907FCD500230649906A93620B7E8D
S11303809B07FCD5044B8A6A0222C3F8982010BC50
S1130390704700BF00040043008000411849194B16
S11303A010B4C0F307420224C1F8944019469A627B
S11303B00B7E9B07FCD5C0F30723124A8C6A8B6221
S11303C0137E9C07FCD5C0B20E49936A90620B7EE3
S11303D09807FCD500230B4A886A8B62137E990721
S11303E0FCD500230749906A93620B7E9B07FCD5DA
S11303F0034B886A0222C3F89820C0B210BC70472D
S113040000800041000400431D4A1E4B10B4C0F399
S113041007410224C2F894401A469962137E990750
S1130420FCD5C0F307231749946A93620B7E9B079C
S1130430FCD5C0B2134A8B6A8862137E9C07FCD534
S113044000231049906A93620B7E9807FCD5002321
S11304500C4A886A8B62137E9907FCD5906A094915
S11304600023C0B293620B7E9B07FCD58A6A044BBF
S113047040EA02200222C3F8982080B210BC7047E0
S1130480008000410004004330B4154A154CC0F309
S1130490064343F080030225C2F894502246A36227
S11304A0137E9B07FCD5C0F307230E4C956A936219
S11304B0237E9D07FCD5C0B20A4AA36AA062137EBC
S11304C09807FCD50748936A9162037E9B07FCD585
S11304D0034B826A0222C3F8982030BC704700BFE5
S11304E0008000410004004330B4194A194CC0F3A1
S11304F0064343F080030225C4F8945014469362E3
S1130500237E9A07FCD5C0F30723114AA56AA36288
S1130510137E9B07FCD5C0B20D4C936A9062237E78
S11305209D07FCD5CBB20A4AA06AA362137E980742
S1130530FCD5090A0648936A9162037E9B07FCD5A1
S1130540044B826A0222C3F8982030BC704700BF73
S1130550000400430080004130B4214A214CC0F320
S1130560064343F080030225C4F894501446936272
S1130570237E9D07FCD5C0F30723194AA56AA3620D
S1130580137E9C07FCD5C0B2154C936A9062237EFF
S11305909B07FCD5CBB2124AA06AA362137E9D07C7
S11305A0FCD5C1F307230E48946A9362037E9C072B
S11305B0FCD5C1F307430A4A846A8362137E980711
S11305C0FCD5090E0648936A9162037E9B07FCD50D
S11305D0044B826A0222C3F8982030BC704700BFE3
S11305E000040043008000412DE9F0414248434F9C
S11305F0B8478407064606D140F6FC70301A18BF87
S11306000120BDE8F0813E483E4CDFF820813E4D9C
S1130610B847012107463D48A04700213C48C04750
S113062000213C48C0473C4B3C48002198470021EE
S11306303648A04739463248C0470520A8473849BC
S1130640384B0220B022C1F8940019469A620B7EFE
S11306509807FCD52523334A886A8B62137E990751
S1130660FCD578232F49906A93620B7E9B07FCD5B7
S113067049232C4A886A8B62137E9F07FCD5FF238B
S11306802849906A93620B7E9807FCD5FF23254A7C
S1130690886A8B62137E9907FCD5FF232149906AEF
S11306A093620B7E9B07FCD54A231E4A886A8B62A1
S11306B0137E9F07FCD5FF231A49906A93620B7E31
S11306C09807FCD5FF23174A886A8B62137E990723
S11306D0FCD5FF231349906A93620B7E9B07FCD5DC
S11306E00F4B8A6A10480222C3F898200721A047BA
S11306F00520A84780E700BF7425300009040000E6
S113070062913000890400008D1200002020300026
S1130710F8203000FC203000590500000021300092
S1130720008000410004004370203000E904000010
S1130730034B1B780BB101207047024B184700BFD5
S113074070040020E90500004B4230B403F00304B8
S113075069B101390D4A10FA81F5411E11F8013FC2
S11307609362137E9807FCD5A942936AF6D154B1DB
S1130770064A00219162137E9B07FCD5631E13F089
S1130780FF04906AF6D130BC704700BF00040043F8
S113079000293CD02DE9F84FDFF87CB0DFF87CA0CD
S11307A01B4EDFF87C801B4C07460D460223C8F81D
S11307B09430B5F5706F4FF0B003A946A36228BF1B
S11307C04FF47069237E9907FCD5A36A2523A3629D
S11307D0237E9A07FCD57823A26AA362237E9B0713
S11307E0FCD538461FFA89F1A36AD8470223A5EB42
S11307F009054F44C8F898309AF80030002BFBD113
S1130800B0470028F8D1002DD0D1BDE8F88F70474B
S1130810E9050000000400434907000070040020BB
S1130820008000412DE9F047DFF800825C4D5D4C0B
S11308305D4F5E4E4FF000490620C8F89490A847DB
S11308401520C8F89890A84700214420A0474621C5
S11308506120A04700210846A0472820A84701207E
S1130860A8473846B0474FF4C874034608E0A84781
S11308703846B047013CA4B20346002C00F08C80FB
S11308807C2B4FF00100F2D13324DFF8A48104E083
S1130890013CA4B2A847002C7ED04046B04710F0DB
S11308A003074FF00100F3D1DFF888A14049414824
S11308B0414C424EDFF88081DFF88091D0474FF4FD
S11308C0BA613F48A04739463E48B0474FF4F071FB
S11308D03D48A0474FF409713C48A0472B213C48B0
S11308E0A04739463B48A04729213B48A0474FF43D
S11308F088713A48A0474FF492713948A0470C21B7
S11309003848A04739463848A0470A213748A04705
S113091039463748B04701213648B04701213648A7
S1130920B04703213548B0474FF496613448A04797
S113093039463448B04739463348B0474FF4C0418C
S11309403248A0474FF000714FF44010D04730496F
S11309503048D04739463048D04702212F48D04745
S113096080212F48B04707212E48B0472021154841
S1130970B047052498F8003053B1013C0120A4B2DB
S1130980A847002CF6D1284B98470120BDE8F087F2
S1130990C8470128F1D0F6E70020BDE8F08700BF82
S11309A08D12000055030000002030009D0300005C
S11309B000A24A040C203000E9040000890400006D
S11309C068213000D4203000342030002C20300046
S11309D030203000382030003C20300048203000E7
S11309E040203000442030004C20300050203000A3
S11309F0642030006C203000682030000421300076
S1130A0018213000802030008420300088203000FD
S1130A100700002604003000080030005420300095
S1130A209420300070203000A912000000800041A2
S1130A30202030005905000070040020E905000062
S1130A40044A05480549064B10602A200122087013
S1130A501A8070478004002000B025784C040020E0
S1130A607C040020024A034B00211170184700BF88
S1130A704C0400201D1300001D491E4B10B4B0226D
S1130A800224C1F8944019469A620B7E9C07FCD557
S1130A902523184A8C6A8B62137E9907FCD5782328
S1130AA01449946A93620B7E9A07FCD5C3B2114A27
S1130AB08C6A8B62137E9B07FCD5C0F307230D4918
S1130AC0946A93620B7E9C07FCD5C0F30743094AE2
S1130AD08C6A8B62137E9907FCD5000E0549936AD4
S1130AE090620B7E9B07FCD58B6A10BC704700BFDD
S1130AF0008000410004004370B5374B06466FF098
S1130B00E20014460D469847344AF3B29362137ECA
S1130B109907FCD5C6F307233048916A9362037E94
S1130B209B07FCD5C6F307432C49826A83620B7E7C
S1130B309807FCD5360E294A8B6A8E62137E990774
S1130B40FCD5EBB22549906A93620B7E9A07FCD5DB
S1130B50C5F30723214A886A8B62137E9B07FCD561
S1130B60C5F307431D48916A9362037E9E07FCD533
S1130B702D0E1A4A836A8562137E9D07FCD5E3B263
S1130B801649906A93620B7E9807FCD5C4F3072339
S1130B90124A886A8B62137E9907FCD5C4F3074313
S1130BA00E49906A93620B7E9A07FCD5240E0B487B
S1130BB08B6A8C62037E9B07FCD5094B826A094CC5
S1130BC0094D0222C3F898202378002BFCD1A847B2
S1130BD00028F9D170BD00BF790A00000004004369
S1130BE00080004170040020E90500002DE9F04177
S1130BF00746DFF8B4806FF0DB0016461D460C464E
S1130C00C047264AFBB29362137E9B07FCD5C7F309
S1130C1007232249906A93620B7E9807FCD5C7F399
S1130C2007431E4A886A8B62137E9907FCD53F0EE0
S1130C301A49936A97620B7E9B07FCD5E3B2174A65
S1130C40886A8B62137E9F07FCD5C4F3072313497C
S1130C50906A93620B7E9807FCD5C4F307430F4A4E
S1130C60886A8B62137E9907FCD5230E0B49906A20
S1130C7093620B7E9B07FCD5094B8A6A14F0500FD4
S1130C804FF00202C3F8982006D12EB1294630460F
S1130C90044BBDE8F0411847BDE8F081000400436F
S1130CA00080004191070000790A00002DE9F0411D
S1130CB0184B05466FF0DD000E4617469847164858
S1130CC0EBB28362037E9C07FCD5C5F30723124A6B
S1130CD0816A8362137E9907FCD5C5F307430E4CE2
S1130CE0916A9362237E9A07FCD52D0E0A4AA36A61
S1130CF0A562137E9B07FCD5084B926A0222C3F8B7
S1130D0098202EB139463046054BBDE8F0411847CE
S1130D10BDE8F081790A000000040043008000412E
S1130D2091070000F0B42D4B1B785BB32C4D2D4F75
S1130D30421E00F1F90600230EE0E3B2032B09D9A9
S1130D402B8804689BB2591C47F823408BB22B8034
S1130D5004300023B24204D012F8011F5C1C0029A5
S1130D60EBD1022B016831D0032B33D0012B2FD0D0
S1130D7000212B889BB25A1C92B247F823102A8078
S1130D80F0BC7047184A00F1FA0501460B1A11F835
S1130D90014BDBB244B19462137E9C07FCD5A9429B
S1130DA0936AF3D1022104E003F00303C3F10403C3
S1130DB0D9B20D4A00209062137E9B07FCD54B1ECE
S1130DC0916A13F0FF01F6D1F0BC704789B2D0E705
S1130DD0C9B2CEE721F07F41CBE700BF4C0400202D
S1130DE07C04002080040020000400432DE9F0412D
S1130DF08046264C6FF0F3001D460F461646A0476A
S1130E00234C5FFA88F3A362207E8107FCD5C8F3E4
S1130E1007221F4BA16AA262187E8207FCD5F9B291
S1130E201B4A986A9962107E8307FCD5C7F307278B
S1130E30174B916A9762197E8F07FCD5F2B214485A
S1130E40996A9A62017E8C07FCD5C6F30726104B7B
S1130E50826A86621A7E9107FCD5EAB20C49986AC6
S1130E609A620A7E9207FCD52D0A094A8B6A8D6222
S1130E70137E9B07FCD5074B0698926A9847064B4E
S1130E800222C3F89820BDE8F08100BF790A00006F
S1130E9000040043250D00000080004108B5054B07
S1130EA01B782BB9044B9847044B0222C3F89820B3
S1130EB008BD00BF4C040020790A000000800041F6
S1130EC005490B889BB210B45A1C044C92B244F8E6
S1130ED023000A8010BC70477C040020800400209A
S1130EE00D4BF0B41D880D4EADB26A1C92B21A803F
S1130EF01C88A4B2621C92B21A801A886FF0E107AF
S1130F0092B246F82570551CADB246F824001D80F7
S1130F1046F82210F0BC70477C04002080040020B6
S1130F20164B1B7803B1704710B5154B04466FF090
S1130F30F6009847134AE3B29362137E9B07FCD5ED
S1130F40C4F307230F49906A93620B7E9807FCD57C
S1130F50C4F307440B4A8B6A8C62137E9907FCD551
S1130F6000230849906A93620B7E9B07FCD5064BCD
S1130F708A6A0222C3F8982010BD00BF4C040020E6
S1130F80790A000000040043008000412DE9F04389
S1130F901A4CBDF91C80B4F800C0BDF820901FFAAB
S1130FA08CFC0CF10105ADB22580B4F800E01FFA09
S1130FB08EFE0EF10105ADB225802788BFB27D1CDF
S1130FC0ADB2258026880E4D00EB0141B6B26FF01C
S1130FD0F20045F82C0045F82E10711C02EB034377
S1130FE089B208EB094245F827300998218045F871
S1130FF02620044BBDE8F043184700BF7C040020C2
S113100080040020250D00000A4B198889B24A1C6F
S113101092B270B41A801A88074D92B26FF0F50636
S1131020541C45F82160A1B245F82200198070BC17
S1131030704700BF7C040020800400202DE9F041AB
S1131040174C184DB4F80080069F1FFA88F808F171
S11310500106B6B22680B4F800C01FFA8CFC0CF16D
S11310600106B6B22680B4F800E01FFA8EFE0EF137
S11310700106B6B22680268802EB0342B6B26FF0B0
S1131080D10345F82830731C00EB01419BB245F8AD
S11310902C10238045F82E2045F82670BDE8F081F9
S11310A07C040020800400200A4B198889B24A1C61
S11310B092B270B41A801A88074D92B26FF0D606B5
S11310C0541C45F82160A1B245F82200198070BC77
S11310D0704700BF7C040020800400202DE9F84301
S11310E0364C24780CB1BDE8F88381461E466FF077
S11310F0BC00334B334D1746884698475FFA89F353
S1131100AB622C7EA307FCD5C9F307222D4BA96A39
S1131110AA621C7EA507FCD5C9F30741294A986A2F
S11311209962147EA407FCD54FEA1960254B916A95
S11311309062187E8007FCD55FFA88F1214A986A8C
S11311409962107E8107FCD54FEA18211D4B906AE5
S11311509162197E8A07FCD5FAB21A48996A9A6292
S1131160017E8B07FCD53F0A164B826A87621A7E82
S11311709507FCD5F2B21348996A9A62027E9407E5
S1131180FCD5360A0F49836A86620B7E9807FCD524
S113119000230C4A886A8B62137E9907FCD50023CE
S11311A00849906A93620B7E9B07FCD5064B8A6ABA
S11311B00222C3F89820BDE8F88300BF4C04002045
S11311C0790A00000004004300800041F0B5164C89
S11311D0164DB4F800C01FFA8CFC0CF10106B6B22F
S11311E02680B4F800E01FFA8EFE0EF10106B6B2B6
S11311F026802788BFB27E1CB6B22680268801EBE3
S11312000242B6B26FF0BC0145F82C1006F1010C95
S11312101FFA8CFC45F82E00A4F800C045F82720DE
S113122045F82630F0BD00BF7C0400208004002077
S113123030B4044C24780CB130BC7047024CA44642
S113124030BC60474C040020ED0D00000D4BF0B4A1
S11312501D880D4EADB26A1C92B21A801C88A4B2CD
S1131260621C92B21A801A886FF0D80792B246F8BC
S11312702570551CADB246F824001D8046F8221096
S1131280F0BC70477C0400208004002050B144F678
S1131290206300BF013B9BB2002BFAD1013880B21E
S11312A00028F4D1704700BF17490023F0B40B8025
S11312B00B889B07FCD40B88134A43F001030B8073
S11312C0138813F00103FBD11049114E11485163E7
S11312D001F110074FF4817440F2014597631480C3
S11312E016640D808860CB6092F84D100A4841F076
S11312F0020182F84D104FF00045148080F81F332E
S11313000560F0BC704700BF00A0004150040020FD
S1131310000F20002804004300E100E070B4104EE8
S1131320104A33881049114C114D12489BB29B004E
S1131330013B9BB2538033889BB201EB8303536020
S1131340636802216FF351436360C5F89410036C22
S11313502A2143F00203036482F8201070BC704712
S11313607C0400205004002080040020000400437A
S11313700080004100A000410B4B0C4A022130B414
S113138083F84E10137E9B07FCD55368084C09491B
S1131390002543F400330220536084F82050C1F840
S11313A0980030BC704700BF00A000410004004317
S11313B05004002000800041084A13686FF3410381
S11313C01360D3699907FCD410731368034943F07D
S11313D002031360CB699B07FCD4704700040043ED
S11313E0014B2A221A707047710400200F4A104BD7
S11313F0936113699B07FCD50E4B93633B204223F7
S11314000A49506382F830300B6C9807FCD50A4ABD
S113141042F20733136253685907FCD442F206338D
S1131420054953624B681B07FCD470470010004009
S113143046A6600060000300001C0040F8B51D4B88
S11314401D491E4F1E4E1F4D1F4A02204FF00044DF
S1131450C3F88840C3F88800C3F89440C3F89800E0
S1131460C3F8A870C3F8A8600B6A402043F00203D5
S11314700B62C5F80C0113686FF341031360D36961
S11314809807FCD4114B1360136899070DD40523F6
S113149013730D4A4FF400335360136843F002038F
S11314A01360D3699B07FCD4F8BD0520084B98470B
S11314B0EFE700BF00800041000800400100035333
S11314C00C004153001C0040000400430C002000A9
S11314D0B91300002DE9F84F454B464C9847464A4E
S11314E0464B0421916098474549464BCA694125BA
S11314F042F020024FF48060CA61C4F8F8501860CA
S11315001A6842F002021A601A699007FCD43E4A33
S11315103E493F4C51603F4B0721E025002084F8B1
S1131520235090601160DA68D10703D49A6842F0BE
S113153001029A60384B9847384B1A68920752D484
S113154003221A734FF00008DFF8E8B0344F354E29
S1131550DFF8E4A02B4CC14645469BF80030002B35
S1131560FBD009F101015FFA81F9B9F1310F8BF870
S1131570005004D9204A0423D3614FF000096023AA
S1131580A58263716379002BFCD1B8478023637112
S1131590637903F0FF00002BFAD1A38A22499BB29E
S11315A008F10102A1FB03135FFA82F85B08B8F1AA
S11315B0030F3380D1D96023A08263716379002B38
S11315C0FCD1D04780236371637903F0FF02002BC1
S11315D0FAD1A38A14489BB2A0FB03139046134A82
S11315E05B081380B9E70320114B9847AAE700BFB3
S11315F0ED130000001C0040008000413D14000079
S1131600000800400014004210E000E0BF27090079
S113161000ED00E000600041E91700000004004311
S1131620511800008C140020ABAAAAAA841400202C
S1131630B9130000710400209D18000010B54AF28F
S1131640FF110C4C0C48A0474FF4D0610B48A04745
S11316500B490C48A0476FF0AC010B48A04749F276
S11316602C110A48A047234609490A48BDE81040FE
S1131670184700BF590500005021300054213000A4
S1131680C24CE5FF582130005C213000602130005D
S11316908D62FEFF64213000F0B56FF0FF0083B06F
S11316A03A4D3B4C3B4E3C4FA8474FF04070A84747
S11316B03A4B3B4898474FF01C50A8473948A84735
S11316C03948A8473948A8474FF08040A8473848C8
S11316D0A8474FF00450A8476FF07B40A84735480F
S11316E0A84738231A4600214FF47820A0473248EF
S11316F0324CA8474FF00450A8474FF08060A847E9
S11317002F48A8472F48A8472948A8474FF0045016
S1131710A8472D4B00931A220023CF210A20B0475B
S11317202A4B00931A220023DE210A20B047284BBB
S113173000931A220023ED210A20B047254B009381
S11317401A220023FC210A20B04700231A22ED218B
S11317507D200097B047009700231A22FC217D20AA
S1131760B047A0470028FCD11B4B1C4898471C4994
S11317701C4B086002464FF440114FF47F209847F9
S1131780A0470028FCD103B0F0BD00BF9D0E0000AF
S1131790DD10000031120000C41B0000210F000006
S11317A0C0C0C0000900001F1000000EE2AD5D04BF
S11317B04000F0400100001F0500D3403107000045
S11317C00300001F40000040A01B0000A81B0000F5
S11317D0B41B0000BC1B0000090400000021300001
S11317E088140020F90A000010B50F4B984700B97F
S11317F010BD0E4A0E480F4B302101241470984737
S11318000D4B0E4C9847EF220D490E4B4FF47820A8
S1131810984740F604730C4A02214FF47A20A047FB
S11318200A4BBDE810401847250800007404002046
S1131830D4203000890400003D160000ED0B0000A8
S1131840D42A0000AD0C0000D01B00009916000043
S113185008B50E4B984700B108BD0D480D4B98478D
S113186060B10A2809D10C4B5A78002AF4D159885E
S11318702A20587029B15A80EEE708BD064B5870EB
S113188008BD4FF480725A8008BD00BF31070000C4
S11318902C2130009D030000740400202DE9F04346
S11318A04A4D2B7885B013B905B0BDE8F083484B99
S11318B048481E88484B494CDFF86C91484F98477C
S11318C0484B804698476FF0FF00A0476FF07D407B
S11318D0A0474548A0474FF04070A047434A444BB7
S11318E011684FF47F2098476FF07B40A047414B2D
S11318F0414898474148A047414B6A8802931421C4
S11319001C2308460192009350221E23C8474FF01F
S11319104070A04764231A4607214FF47A20DFF869
S11319200C91C8476FF0D900A0474FF448114FF409
S11319308C00B847334B6868984733493348B847F5
S11319406FF0D500B6B2A0476B88B600B6B21BB133
S11319506B6803F580736B602D482E4DA0472E48AD
S1131960A0474FF00450A0474FF00C50A0474FF051
S11319708060A04700964FF400631A22CF2178209C
S1131980A847CDF800804FF400631A22DE217820A6
S1131990A847224B1B8800931A2240F60503ED2129
S11319A07820A8471E4B1B8800931A2240F6050393
S11319B0FC217820A8470020A0476FF0FE00A04734
S11319C0184B05B0BDE8F043184700BF740400206D
S11319D07C0400200021300009040000C10E000036
S11319E04D120000410A0000070000268814002060
S11319F0E10E000009100000C0C0C0000A0000038E
S1131A00C81B0000A91000000000CEFF0000BAFFB0
S1131A100100001F3D1000004200BE40841400205D
S1131A208C140020650A00008D0F0000CD11000009
S1131A3070B50F4E0F4D761BB61018BF002405D09D
S1131A40013455F8043B9847A642F9D10A4E0B4D90
S1131A50761B01F0B9F8B61018BF002406D0013483
S1131A6055F8043B9847A642F9D170BD70BD00BF3C
S1131A70D42B0000D42B0000DC2B0000D42B00005E
S1131A80024B13B1024800F005B870470000000093
S1131A90A11A0000002301461A46184600F01EB899
S1131AA038B50A4C0A4D641BA4100AD004F18043D3
S1131AB0013B05EB8305013C55F804399847002C9C
S1131AC0F9D1BDE8384001F089B800BFEC2B000023
S1131AD0E82B0000704700BF704700BF2DE9F843B2
S1131AE02C4D0646286898460F469146FFF7F2FFAC
S1131AF0294B1C68D4F84831002B3ED05A681F2A61
S1131B001CDC02F1010E76B103EB82010124C1F861
S1131B108890D3F8880194402043022EC3F88801AA
S1131B20C1F8088123D00232C3F804E0286843F8DE
S1131B302270FFF7D1FF0020BDE8F883174B0BB3E9
S1131B404FF4C870AFF300800346D8B1D4F84821ED
S1131B500260002141600A46C4F848014FF0010EBA
S1131B60C0F88811C0F88C11002EDCD0CCE7D3F873
S1131B708C110C43C3F88C41D5E704F5A673C4F863
S1131B804831BBE72868FFF7A7FF4FF0FF30BDE8F7
S1131B90F88300BF28040020C42B000000000000CC
S1131BA042797465733A0000444C2D73697A653A3E
S1131BB00000000054696D65313A000054696D6598
S1131BC0323A000075730000546F75636821000099
S1131BD0FFD8FFE000104A464946000101010060B9
S1131BE000600000FFDB0043000503040404030558
S1131BF004040405050506070C08070707070F0B6F
S1131C000B090C110F1212110F111113161C1713BB
S1131C10141A1511111821181A1D1D1F1F1F13172F
S1131C202224221E241C1E1F1EFFDB004301050567
S1131C30050706070E08080E1E1411141E1E1E1E8C
S1131C401E1E1E1E1E1E1E1E1E1E1E1E1E1E1E1EB0
S1131C501E1E1E1E1E1E1E1E1E1E1E1E1E1E1E1EA0
S1131C601E1E1E1E1E1E1E1E1E1E1E1E1E1EFFC00D
S1131C700011080064006403012200021101031131
S1131C8001FFC4001B000100030101010100000069
S1131C900000000000000005060704030801FFC45B
S1131CA0003B1000010303030204040306040700BD
S1131CB0000000010203110004050612210731137C
S1131CC02241613251718114151708425491D2E2B4
S1131CD06693A4C1162324528294A1FFC4001B015D
S1131CE000030003010100000000000000000000E8
S1131CF00005060304070102FFC4003611000102B7
S1131D0004040306040505010000000000010203A9
S1131D100004051121314151061271132261819190
S1131D20F014A1B1C11542D1E1F116233233B2D27C
S1131D30FFDA000C03010002110311003F00FB2E27
S1131D4094A5104294A51042A0F5EE5D583D219251
S1131D50C9B6A5A5D69929694948252E2884A0C1C4
S1131D60E2028827DBE7539590FED179648671B847
S1131D7026D482A528DD3A0A4EE48129441ED06582
S1131D807C77E076F5C330E766D95434A349FC6424
S1131D90F36D1185EE7A0C4FE9148E9165D588D7D1
S1131DA0960ADCB0D5DABF0AE84A412A0B8091CF03
S1131DB061BF6131CC0FB57D2B5F366B8D32BC2E8C
S1131DC00F0F75B9B2A0D78371B5BDA4B854B5824D
S1131DD04FAF076F3CC207D06FBA3F2C9CE698C741
S1131DE0E5429054FB20B9B1242438385800F3015B
S1131DF0408FB7AD2CA34EB334D92D2AE3DDF38A3B
S1131E000E2D421FECE75AC8DD27C8E1EB8C4B527C
S1131E1094A731170A5294410A5294410A529441A8
S1131E200A5294410AC1751DC2B547598B5FF38D9F
S1131E30BD9BDE0A46D00A12D495723D0AF7193CBE
S1131E40C1038E056C9AC32C9C1E98C8654A9014D5
S1131E50C324B7BD24A4B87840207305440FBFA59C
S1131E60631D1AB3421591CCDC25286DA486D2EAF1
S1131E708C01FBCBFA40DBCFBFD6A6B8A673E1E456
S1131E80576CC8B7AE03EB7F28ABE1E6C312EFCEC5
S1131E90AB41CA3A9CFD308BA6BCB0FCC349DFB051
S1131EA010B5AD2DF88808EE549E47D7B76AF1FDFA
S1131EB09DF25E3E9CBEC62D6F29769701C4EE321C
S1131EC094A16384A79E3CC95923DFDCD73E98D5EF
S1131ED06F66F22BB0BCB7B769BF09459015C9E668
S1131EE07699F88C13DA3B1E3E557E9E5C0D2FD5F9
S1131EF0A5E3DD4A5A62E1C5DA79815109590A6ECE
S1131F0020F72420499E099F989CE130E53E6972A0
S1131F108EE782BD458FA1B08F69932D55E92FB609
S1131F20C9BF2F787967F2FAC6FF004A52BA44490A
S1131F30C294A5104294A510466DFACDA63F80CB5D
S1131F40FF0094DFF5D3F59B4C7F0397FF0029BF77
S1131F50EBAA47513A657D81F12FF0E1EBEC5A1B76
S1131F60DEE15105D662277011B87AC81C09988938
S1131F702D0A9D0997C7B38EC9E2916F99DE96D059
S1131F80AF1DEDB733D88854255E8418049E3BC03A
S1131F904B333AFCBA14A58FF117B5B136DA3A0FC0
S1131FA0E13465CB099652A5A75E5388EA30B7B3EE
S1131FB0963168C8F5AEC50F818FC15C5C35B795A5
S1131FC03EF069415F28015C76E67ED5CBFADDFE02
S1131FD01AFF005BFD953B8BD21A7AD8ADAB6C3DF2
S1131FE0A2CBD00F8E3C5EDDA0AE76F7F489AE4C6A
S1131FF0C33A37117A6CEFF1F8B69F090A5205A279
S113200056520F69DA9307DBE9F3A9947173CF8E03
S1132010797656A4EE1233DB0BC2D75FE1F971FD7A
S1132020C6AC372AB7DED14CEA07529DD55834E204
S1132030DBC62EC13E325C7149BA2B0E2403E52364
S113204068E2483F548A96B447E4DD296912869FC2
S1132050BD4832913BFC433CF1DFC3E3EDF4AEBB3E
S1132060BC9E8565B0B6F156772498DADD8A411EA8
S1132070FE600543EB3D416F9B4DA37689B96D0D21
S11320801515A5C00024C41E09EDCFF3AD498989F7
S1132090AABBECA5C65494855C9236D212F1071201
S11320A0D345315292361AD82AF89C33F3BE7A4477
S11320B05615F731B97B0BD70A996FC40ADE512044
S11320C0B7252A238E446E1C7C8FAD76F582D556B7
S11320D039FB0CBDAB85975E47C4DCA5416D910B04
S11320E091EB0523FF001AB1F52F4DA313A6B06F92
S11320F0368692B61BFC33E52B51DCA32B913E9B19
S1132100BC43E9F10FB73B7AAF06F62AD6CF298F45
S1132110B8BE534846F2EB48701584C157995DFB2D
S1132120F3EF5BB59977E5679A9A65055604280D30
S1132130B4F9C22E11AB228332B6E64D93607ADC39
S1132140623E9E91EA3ADD023FE1AFF5BFD94FD638
S1132150EFF0D7FADFECAF6FC6E81FE0F1DFFA1F4C
S1132160DB53589C2E9CC9587E636189C53D6E140F
S11321704157E19BE08F4208907D88F51F3A3FAAC2
S11321802700B9975D867DDD3D22CDB9FE1C755CC7
S1132190ADB409F059FF00D4715975A304BB642A86
S11321A0F7179165F33B90D6C71239E2145492782D
S11321B08F415EDFACDA63F81CBFF94DFF005D723E
S11321C064B4968DB743F92BFC7B2C32825C795E28
S11321D02B894264FF00DA93C0930001EA001DAB2F
S11321E037D50AC2E533271BA374FAC34150DB88F1
S11321F02F38F3F00C9092A309F5889E24912406BD
S113220094CAF9A8A14B681006188CFA5AF0D65251
S113221095499C51ECDA581A9BF7479DFF0078D4F6
S1132220FF0059B4C7F0198FB34DFF005D2A374D35
S1132230746EC9CC434EEA0BCBD6EF97E65356AE39
S11322402025B1E8924A4C9F991C7A09892A760C78
S1132250D917C2345C470DA1653751B6D7B46B6743
S11322609ACABA85D2962F3FEBF4B36D5ABE37297A
S1132270DB55288439DCCA3D126788E13DBE18E786
S113228055A56DB8D25D165089B90A8CC4839DA337
S11322900AB6E343D447CFBA4F5DDF62EE0E335143
S11322A0A6E1E4878A56F3A4979932770503CAA076
S11322B0FDC73DF8156CD53A6EDF34D3995B07CA78
S11322C0EEDC421488582DBC902041F42444198E2D
S11322D03DE45AFA83A1F1DABAD9B2E2FF00097CEB
S11322E0D70D5D251B8ED9E52A12370EF1CF07B71E
S11322F0720E416779A8FA799936195B775764A504
S113230094ED325B7008256D28F13C8FE70403DA05
S113231016A9437E4DE3392182B51A2BCB7F781859
S1132320A3999290E246086D212E6653F749DFD9AE
S1132330DCFB6975E12D72C59D4960F3ACA8F86AB0
S113234021C523C133C9291C9F4E27813C1315AED7
S113235059E88D207C1BAB7C6B6EA4C38DABC75A34
S1132360D0A1DC182A208FFE1AA9EB4B6C76534DB2
S1132370232EB5EC28652EB0E84C9525705283ECDD
S1132380491F424FBCC8F441CBF5E22F52F38A55A2
S1132390936EA536E090425504AC0F503949F9725A
S11323A063D69C506A6DD4106E8B1181046475F7EA
S11323B09C7314480909BF84792157C41B0B8EBE32
S11323C0FF006BBE63176197B236791B64BEC6E02B
S11323D0ADA490411D8823907E9F3354DD5181D05C
S11323E03A76C93737F8D512B3B5B69B7DC2B59FD7
S11323F058054381EA7FDC8ABF5617AB51737BD4FF
S113240047ACF30F3D0ABA0D236C1296947C807A84
S113241001047F32482669CCF3C861A2E285EDE16C
S1132420B467AA14212921B0A528D812061115844D
S1132430C43B9ACA299B442DAB60A95AD7E6F091B4
S11324403C49E372BF94FB098BC3B7788D0F826953
S1132450ABA7DD585B93B5025C7566028A524800EF
S11324600007A81C0E64F3E5ABF3569A3B0ECA2C86
S11324706CDA0F3F2961B0984CA40054A8E4F047EB
S1132480B9F9F73558D1DA1739AD2ED597CF5CDCC9
S1132490DB5A1295075C479DF06150D83C04C1E1BA
S11324A0511C880798806DB99E2172E414B00E5AAD
S11324B0ABAF87B18E315DC3BC2D2D20CFC6CE2EE0
S11324C0C37DFC123EF9C47B08D4FD49CDBB6F68C3
S11324D07C2B4442CA16B50B76009DBBA072A32484
S11324E04C4993D80E368D0FA2F0FA56D87E11AF10
S11324F016F56D843F74BF89CE64C0EC913E83E4CD
S113250026489A9CC563ECF178F66C2C2DD16F6C3F
S1132510CA76B6848E00FF0073EA49E49E4D74D5F2
S1132520EC953DA946C21032F9466AA575C9B4F6C0
S11325300C8E4686835EBBF4FAE70A5295BF0861A7
S11325404A5288215F3FF549E1A87AB08C5FE219CD
S11325504348719B14BC8F36D920A8AB9E4A54B50E
S11325600238ED15BD5FDD336363717972BF0D868B
S11325701B538E2A09DA948926072781580F49D0DC
S1132580F6535B5E66AECBAB75B6DC794EA51085B3
S11325903AE1DA42A04094A9C2071F0FB4529AC488
S11325A0CA65D82A564013E9157C309EC43F387F4B
S11325B0226C3A9FE3E7167EA75C22DF136960C2B0
S11325C03C14B8E4843436B61081F0C0F492981EFA
S11325D0DED5CD8BD5EDE9BD24CE2F16C255917D28
S11325E02A75F7F7EE4B4A51F2C0E4156C09E38003
S11325F00C4C9DC2BC3A8ECDDDCEA1B5B661B7DE22
S113260026DB721B424ABF7952401EC9E7E9ED52EC
S11326105A774EDA60528CBE59F68BC840504A87BE
S113262095857799F5207AF60648980AA8EA54FB26
S1132630549A6A5D755DE5DCDB5373A0E96C728EB8
S11326407732CCE4FD55C12E32B26FB0D7CCFAFD4F
S113265062231BA8F55606EECF237AF5EDC5B5C265
S11326603725AB9754A43A89E626769EC41EF041DA
S1132670E41E79F5CE56D32F95B6CE63D2AB771E32
S1132680693E3A439E743C831F58DBB208001FA87E
S1132690205A2C754E0736EDD6296E3652A3E1ED3D
S11326A059E1D1DE47D226476227E44D6353693BA3
S11326B09C60171665CBCB63B8AB6A3CCD0127CDC4
S11326C01DC47EF71D8C81C4EE48710A2709967DCE
S11326D0250A39056B7CAC4DB1F0B47CD6A833F433
S11326E0D6F94DD48C0E231077E9F4D6273A8D66AB
S11326F08CDE85FCC6DDA3E25BA5176896B738506F
S11327004429323E110ADC7B8F27B489AE8164BF31
S113271017A29562B5B3BEC6E1684A127CDB15E721
S11327200A509F5529601E3E1F635CBA35A37FA3E0
S11327305BB3BC53E869F69D614E482A2DA8A924D1
S1132740A7BF6048123D3B76AAC742EE9FC3EBABDE
S1132750FC0DE2FC15BCDADA5330152F34AEDB8401
S1132760F64F89EB07DF8AF7851DEC79E58FE45195
S11327704F91C47CEF1D2251C351A0AC1CD3CAB1EC
S1132780E631FBFAC6E94A52AEA24A14A5288214DD
S1132790A52882291D6EC97E5FA06E5B4ADE439721
S11327A08E22DD0A6CC449DCA079EC52950F798E37
S11327B0D559E90E35365A405F1D9E2E41E52C94BD
S11327C0924F8682509067807778878F4227DA2FDE
S11327D0F688C9B5719DC7629BD85568CA9C714972
S11327E05C905C23CA47A10100FB850FBFE3BAE7F5
S11327F01D6B616582D3B6B7774AB76D16C8525858
S11328000DFE217305494892371255C8DC49A8FECC
S1132810284BF312EB6981726C3E773B74317B2752
S113282020FF00E10DB4DA717145476B0CAE7D0CED
S11328305CF546A7B5C3638F8EE1096D309403F14F
S113284028F31EE7DBDBD3BD5231D8BD49D47C83EA
S11328508A2A771B84890F2DA90B8240091C6F32A9
S11328600C8060473CC4D8B4874E6FAF6FDACD6B31
S113287037038A42D4A6F1A085369ED0544122382B
S1132880F8477E249E456A2C32D5BB086186D0D396
S11328904DA425084261290380001D8562A270BFF2
S11328A06452FCE9E658B5B60064074FE2D0B9DAE1
S11328B08CB534144A596E6AAD074DCF8E5D6337BB
S11328C0CFF48F12E63D8FC81F731F7F6E243AB575
S11328D0A961E501C6EE7CA6403291C49F29E22B92
S11328E0181D5795D3F7C30FAA6D9EB67C39E571B1
S11328F068DA224899ED123850907DB935B9544EB2
S1132900A7D3D89D478F5D9E52D50ECA486DD00778
S113291088D131CA15E8781EC63991C538AB5065DF
S1132920AA2DD942CA1911988D594AEA949EC67B98
S1132930BE83AFE61D0EBD0C44A2F537CCB6E856F7
S1132940E206D9F5FA1F7AC9B5C6FD2FD4F6333697
S1132950BF0BAB6EF821B75492A930EA49F4DCA45A
S1132960AFB48857DAA5F238BD4BD3D754F2D4E6C6
S1132970530C36245CA385353C41492607111F0FAF
S1132980C3C8262AB7AF751E3352E3ED9F69B5DB82
S1132990DF5A3A5BDAA6C12F34A4833B876DAA07BA
S11329A0CA67E3907BD4952642A14F9F7133188266
S11329B0077B7232F3B5FF0058A5A449723FCCD10E
S11329C0E7656082478EE331F6BED1F4903201A50B
S11329D0553A4B92FCCF40631C52D92E30DFE1D6DE
S11329E096CFC3B0ED483CF04A424FDE7B1AB5D7D0
S11329F04842B99214358E7F34C2A5DE5B4ACD2499
S1132A008F485294AFA8C10A5294411F2EF52AF55B
S1132A10DBFD7B9A79E4A12A45DAD91B440DAD9DEF
S1132A2089FBC244FBD6D7D2CD2384C56031F96675
S1132A306DBC6BEBBB66AE14FBD0A53654D894A327
S1132A408F28F31F733C93C5294AA540330ABF8CD2
S1132A50746E205A9BA3B2106C0848C36B08BBD297
S1132A6094A6B1CE614A52882040220D605D70D296
S1132A70F89D3F90B2BBC5B6B646414F29C6411E2C
S1132A801A0A767C023807713131F281C5295A530A
S1132A90C076578AAE0F5A8543941C08378B17ECBF
S1132AA0DF74FAECB3566A5CB0D38CB884C0E14BE3
S1132AB00B0A33DF9084FF002AD6E94AC927FE9423
S1132AC0FBD634F89C015476DE1FF2214A52B661DB
S1132AD00C7FFFD9789CDDD2BB16C3200C03D07CBD
S1132AE03A9FDE214352024692654E5365E8627472
S1132AF079F4384C69B76F479A41543ADEE4C51DFE
S1132B00EDF1D5794F4BF3B08EB1764DABD6B7B866
S1132B10D6F073ADF68CCCE5EEB1D2C33BEA4FE709
S1132B20F7E28EDD1E3E8BC6733AB53F6EF90D0F8C
S1132B300DAB8D57E039A7D51B624EB2F23299EF37
S1132B40FEFEEBB194DBAAD06A3CEEBFF7362FD27F
S1132B50FEDDAB08E6C5B780EF199D7479F326E670
S1132B601EF21E7BF3396F1687D7B7C471785C7673
S1132B707BACE888DF5BADD8EDE122976885C3EBD9
S1132B8067E215196F3CB9DAA1E6CD27D11B61BC08
S1132B90EC4B739EFAD2A8A84EAA628D87BD0AFB9D
S1132BA0D28A58E78DFB504FCD6EAF6FC5BC5C58D1
S1132BB02F1FC6F304F57C19F7554857B7980FF043
S1132BC097899F0000000020F8B500BFF8BC08BC3E
S1132BD09E467047811A000089020000F8B500BFC4
S10F2BE0F8BC08BC9E467047650200006B
S1132BEC00000000EC02002054030020BC03002071
S1132BFC00000000000000000000000000000000C5
S1132C0C00000000000000000000000000000000B4
S1132C1C00000000000000000000000000000000A4
S1132C2C0000000000000000000000000000000094
S1132C3C0000000000000000000000000000000084
S1132C4C0000000000000000000000000000000074
S1132C5C0000000000000000000000000000000064
S1132C6C0000000000000000000000000000000054
S1132C7C0000000000000000000000000000000044
S1132C8C0000000000000000010000000000000033
S1132C9C0E33CDAB34126DE6ECDE05000B000000F8
S1132CAC0000000000000000000000000000000014
S1132CBC0000000000000000000000000000000004
S1132CCC00000000000000000000000000000000F4
S1132CDC00000000000000000000000000000000E4
S10F300C000000000000000090140020F0
S9030000FC
